:02000002D0002C
:1040000000400D00CCE00D00000006000C00050192
:084010000401DB0700000000C1
:0440180004C80D00CB
:1040200009480A49884208B505D0094A824202D0A7
:10403000121A06F01BFD0748074A0021121A06F063
:104040003DFD014808BD00BFACDD0320ACDA0D002A
:10405000A4E30320A8E30320F4E7032070B5074E90
:10406000074C03F035FBA41BA4080025A54200D192
:1040700070BD56F8043B98470135F7E774DA0D0038
:1040800098DA0D0000F08EB808B500F087FCBDE8A6
:10409000084003F0DFBA02F059BE02F057BE02F04A
:1040A0005DBE000008B5034A00210C2002F092FD1D
:1040B000FEE700BF95680D000078B0FA80F0400977
:1040C00070470123037070477047704738B58469A3
:1040D0000A4B036005467CB16368013B63605BB9D2
:1040E000236820469B689847A368013BA3601BB9DF
:1040F00023682046DB689847284638BDE8D50D0080
:1041000010B50446006808B102F028FE204610BD34
:104110000EB403B503AB002153F8042B019303F055
:1041200080F902B05DF804EB03B0704710B50446A7
:10413000FFF7CCFF20461C2104F0A7F9204610BD54
:1041400038B5164C0546204601F0BCFB002211464E
:10415000204601F029FF2046002101F032FF2046D1
:10416000022101F024FF2046012101F025FF2A460B
:104170000B492046FFF7CCFF204601F027FC2046E4
:104180000722002101F0F9FB40F2DC5003F020FA95
:104190002046BDE8384001F015BC00BFA0E4032074
:1041A000E4C90D0038B50021122004F0AFF8012158
:1041B000032004F0ABF80121032004F0A7F803F07A
:1041C0009DFB4FF4165103F08DFB03F097FB45491F
:1041D00003F007F9444801F098F960BB03F08EFB47
:1041E000424903F0F4F803F089FB414903F0DCF89D
:1041F00003F084FB04463C4800F00AFD102201460F
:10420000204603F0F0F8204603F0D5F803F076FBE3
:10421000384903F0C9F803F071FB374903F0C4F8DB
:1042200003F06CFB354903F0BFF803F067FB34493A
:1042300003F0BAF8FEE703F061FB324903F0C7F878
:1042400003F05CFB03F0B7F8B9EE0C0A03F030F9A9
:1042500002F05CFD10B1002002F060FD03F04EFBA7
:104260004FF4165103F03EFB0021132004F04EF8EA
:104270003C2202212448254C254D01F017FC224800
:1042800001F0A4FB4FF4FA6003F0A2F903F036FB4F
:104290002049FFF73DFF002360681A46194602F0E7
:1042A000DDFC00226068114602F0E0FC40B103F042
:1042B00025FB2946FFF72CFF642003F089F9F0E77E
:1042C00003F01CFB1449FFF723FF1449144801F0C5
:1042D000E7FF02F0E7FA134B1860BDE838401248D8
:1042E000FFF72EBF18C80D0034E4032024C80D00CA
:1042F0006CC80D007DC80D00C4C80D00EEC80D00CF
:1043000018C90D0042C90D00A0E40320C8E703202E
:1043100025CA0D0055C90D006EC90D00DCE503204E
:1043200000E5032018E6032082C90D0030B51F4CBC
:104330008DB0054620460B9101F0C4FA00221146CB
:10434000204601F031FE2046002101F03AFE2046D1
:10435000012101F02CFE2046012101F02DFE144A1E
:104360000892144A106805F0A9FCCDE90601124A2A
:1043700012680592114A12780492114A106805F0E9
:104380009DFCCDE902010F4A106805F097FC0B9BDC
:10439000CDE900012A460C492046FFF7B9FE204628
:1043A0000DB0BDE8304001F011BB00BFA0E4032018
:1043B00095E4032078E4032000E40320B0DD03202B
:1043C000D4E403201CE6032092C90D00F8B5184878
:1043D00001F00BFE50BB03F091FA1649144E164F34
:1043E00002F0E2FF124802F01CF90446B8B103F0F3
:1043F00085FA21460546304601F030FF0146284641
:1044000002F0E5FF03F07AFA394602F0E0FF3046A9
:1044100001F032FF41F2883003F0DAF8E2E703F00E
:104420006DFABDE8F840054902F0D1BFF8BD00BF04
:1044300000E50320E7C90D00FEC90D0027CA0D00E5
:10444000F8B5144E144F154C226833689B1A4EF67B
:10445000602293421CDD02F025FA3A68206040F6A3
:1044600016539A42F0DD0E4D0121032003F05FFF49
:1044700033682A689B1AB3F5967FE4DD02F012FADE
:1044800000212860032003F052FF00232360DAE7B5
:10449000F8BD00BF30E60320F0E4032034E603203B
:1044A0002CE6032038B5244D02F0FCF92A68801A66
:1044B0004EF6602290423DD9204801F014FE0028BB
:1044C00035D01F4B1F4C186805F0F8FB41EC100B62
:1044D00002211D4802F010F9206805F0EFFB41ECC5
:1044E000100B0221194802F007F9206805F0E6FBDD
:1044F00041EC100B0221154802F0FEF8144B154850
:10450000196802F0EAF8144B186805F0D7FB41EC83
:10451000100B0221114802F0EFF8114B11481968F5
:1045200002F0DBF803F0EAF90F49FFF7F1FD02F0C2
:10453000B9F9286038BD00BFE8E4032000E5032096
:104540001CE60320D4E4032020E60320D8E4032063
:10455000F0E40320F4E4032078E40320C8E403201B
:1045600010E40320F4E3032037CA0D0038B5114DE1
:10457000114C4FF47A71284601F0ADFE014658B156
:10458000A042F6D1601D06F04BFA51EC100B05F07D
:10459000BDFE0A4B1860ECE7084BD3ED007AF5EE50
:1045A000407AF1EE10FABDE8384018BF012103202F
:1045B00003F0BDBE00E50320DCE50320D8E50320C1
:1045C00010B50F4C02F06EF92268801A0D4A904225
:1045D00014D903F093F90C49FFF79AFD0B48012118
:1045E00001F0F0FE38B903F089F90949FFF790FDB1
:1045F000064801F041FE02F055F9206010BD00BFF1
:10460000E4E40320C0D4010049CA0D0000E5032002
:1046100058CA0D0008B50D4800F0CAFB0C4B0B48FA
:1046200083ED000A00F0F2FB0A4B084883ED000A14
:104630009FED090A00F0C4FC084B044883ED000A12
:1046400000F05EFD064B83ED000A08BD34E4032054
:104650001CE60320D4E5032000507D4430E4032011
:10466000D4E40320000000002DE9F84300212DEDE3
:10467000028B122003F0C1FE434C444B444D1860A2
:1046800023681844206002F00DF9424BD3F80080F3
:104690002B68C01A404561D9206805F0EDFA06463E
:1046A00040460F4605F0E8FA3B4BDFF8F880002261
:1046B00005F05CFB02460B463046394605F080FCAF
:1046C00005F024FEC8F8000005F0F8FA9FED261B5F
:1046D00041EC100B03F0F0FF98ED008A18EE100A81
:1046E00057EC106B05F0EAFA21A3D3E900238046CA
:1046F00089463046394605F039FB424606460F46A4
:104700004B464046494605F031FB1BA3D3E9002345
:1047100005F02CFB02460B463046394605F06EF993
:10472000DFED1E7A68EE277A064617EE900A0F46EE
:1047300005F0C4FA02460B463046394605F060F9EA
:104740000FA3D3E9002305F05BF905F0DFFD144B5F
:1047500018600023236002F0A5F82860BDEC028BEE
:10476000BDE8F883AFF300800000000000000840BF
:104770009A9999999999F13F6666666666660E40C0
:10478000D7A3703D0AD7E33FECE40320C4E4032041
:1047900018E60320B4DD032000002440000002449A
:1047A00078E4032014E6032038B51F481F4D204C41
:1047B00001F0D0FF28601C4801F0E6FF00282060CF
:1047C00030DB03F09BF82A681A49FFF7A1FC236845
:1047D00053B91949194802F059FD03F08FF81849E7
:1047E000BDE8384002F0F3BD012B07D1154913484D
:1047F00002F04CFD03F082F81349F1E7022B07D1D8
:1048000012490E4802F042FD03F078F81049E7E73C
:10481000032B07D10F49094802F038FD03F06EF869
:104820000D49DDE738BD00BF14E4032010E4032088
:10483000ACDD032068CA0D007CCA0D0000E4032033
:1048400092CA0D00B6CA0D00CBCA0D00DBCA0D001E
:10485000E9CA0D00F8CA0D0002CB0D0030B5164CA8
:10486000164D174985B020460023192202F020FD7D
:10487000144900230922284602F01AFD02F08DFE99
:104880000246C317684602F033FE6946204602F02E
:10489000F5FC684602F076FC13230B22214668469D
:1048A00002F01EFD6946284602F0E8FC684602F068
:1048B00069FC05B030BD00BFACE30320E4E3032096
:1048C0007CE4032095E4032010B5264B264C1B689E
:1048D00022689B1AB3F57A7F8AB041DD01F0E2FFCE
:1048E000206003F00BF8214B0446186805F0E6F948
:1048F0000B461F49096806911E4902460868CDE922
:10490000082305F0DBF9CDE904011B49086805F02F
:10491000D5F9CDE902011949086805F0CFF9DDE9BB
:104920000823CDE9000116492046FFF7F1FB02F00C
:10493000E5FF144A1449FFF7EBFB02F0DFFF134ACF
:104940001349FFF7E5FB02F0D9FF124B0446186844
:1049500005F0B4F902460B4620460F49FFF7D8FB95
:104960000AB010BD30E603202CE603201CE603202D
:10497000F0E40320D4E4032030E40320D4E5032052
:104980000CCB0D007CE403205BCB0D0095E40320F1
:1049900070CB0D00D8E503207CCB0D0010B51320A3
:1049A00003F0F1FC0F4C206001F07CFF0E4B18600F
:1049B000FFF75AFEFFF7F8FEFFF750FFFFF72AFE5A
:1049C000FFF782FF21680948FFF7B0FCFFF7FEFC04
:1049D000FFF7F6FDFFF7CAFDFFF764FDBDE81040E5
:1049E000FFF72EBDF0E4032030E6032092CB0D004C
:1049F00010B52421044603F048FD204610BD10B533
:104A0000D421044603F041FD204610BD2DE9F341B9
:104A1000434C444B444EA36000252560A580A571FE
:104A2000022002F0EFF832464049414FDFF868813A
:104A30002046404C03F024FD11213F4801F085FE43
:104A40000421204600F028FF32463C49204603F06E
:104A500017FD3B4C3946404602F0DFFB4046DFF88D
:104A60003C813246214603F00BFD3946404602F0B8
:104A7000D4FB4046DFF828813246214603F000FD92
:104A80003946404602F0C9FB2E4F32462146404689
:104A900003F0F6FC2C482D4C00F0B6F8384603F035
:104AA000FDFA32462A49384603F0EAFC294B0093C6
:104AB00029492A4B40F25B72204601F049FB284B02
:104AC000236032462749C4F8D070204603F0D8FC52
:104AD0002B462146244A254801F0FAFD2B46214663
:104AE000234A244801F0F4FD2B462146224A23485C
:104AF00001F0EEFD2B462146214A224801F0E8FD57
:104B00002B462146204A214801F0E2FD204A214857
:104B10002B46214602B0BDE8F04101F009BE00BFBE
:104B2000BCE303200000FFFFA8E3032001410D00C8
:104B300081C90D00A0E4032014E40320C9400D0046
:104B400085710D00C8E3032034E4032000E5032051
:104B5000CD400D00BDCB0D00ADCB0D00A2CB0D00A7
:104B60005CD20D00CB400D00DECB0D0020E6032013
:104B7000F7CB0D00C8E403201ACC0D00D8E40320C5
:104B800037CC0D00F4E4032056CC0D00F4E30320F1
:104B900072CC0D00DCE5032000E40320ACE303202D
:104BA000E4E30320704710B51021044603F06DFCC8
:104BB000204610BD73B5044608462279A36832B179
:104BC000A3B90B4902B0BDE8704002F0EDBB094A41
:104BD000267B094D0949647B012E18BF2946CDE982
:104BE00000140749FFF794FA02B070BD054AEFE7D9
:104BF000A0CC0D0081C90D009CCC0D0098CC0D00FF
:104C0000B6CC0D008FCC0D004FF0FF330361704721
:104C10008068704713B50B4C2178BFF35B8F11F0A0
:104C200001010BD120460191FFF746FA019928B105
:104C3000054802F01FF92046FFF743FA024802B088
:104C400010BD00BF38E603203CE603202DE9F0410B
:104C500090F91330013305460F4606D1FFF7DAFF0E
:104C60003946BDE8F04102F025BA002407264FF08E
:104C7000010895F91300002180B203F058FB95F963
:104C8000110008FA06F1394080B203F050FB95F9A3
:104C90001300012180B203F04AFB95F91200640071
:104CA00080B2E4B203F05CFB08B144F00104013EC1
:104CB000DFD22046BDE8F08108B5FFF7ABFFBDE8C5
:104CC000084002F018B907B50190FFF7A3FF01995A
:104CD00003B05DF804EB02F027B9000030B590F99D
:104CE0001030013385B004460D4623D101790068A8
:104CF00002F01CFF2068036829469B6898472068DB
:104D000002F01FFF21792068032202F00CFF2068C7
:104D100003685B6998470502206803685B699847E8
:104D200028430502206803685B69984705432846C5
:104D300005B030BD90F9133001330CD11A4B0093FC
:104D400000238DF80430194B029368460123ADF817
:104D50000C30FFF7B8FF94F91000002180B203F087
:104D6000E6FA45F080012046FFF770FF002120465B
:104D7000FFF76CFF002105022046FFF767FF28437D
:104D8000050200212046FFF761FF054394F910005A
:104D9000012180B203F0CBFA94F913300133C6D16C
:104DA000FFF78AFFC3E700BFDCCC0D0020A107009E
:104DB00010B5FA210446FFF791FFB0F5000F1ED0A1
:104DC000A18A9FED107A4B00C1EB2022C3EBE011CA
:104DD000B4F9163052435943B4F9183012135343FF
:104DE0009B1303EBE123E36003EB830380331B128C
:104DF00007EE903AF8EEE77A87EE870A10BD9FED4E
:104E0000020AFBE70000C8420000C07F2DE9F8431A
:104E10000446FFF7CDFFF7212046FFF75FFFB0F50F
:104E2000000F054600F0BF80E068B4F91C60B0F5E3
:104E3000FA334FEAE07141F1FF32A3FB038903FB30
:104E400002F109EB4109F71706FB02F103FB071119
:104E5000A6FB03670F44390341EA16513003B4F946
:104E60001E60F71706FB09FC08FB07CCA6FB0867CA
:104E700067444FEA162C4CEA076C668B4FEA272EE4
:104E80001CEB00004EEB010E00304EF5004EA0FB77
:104E9000060106FB0E114E10CF1756EA070100F06F
:104EA0008580B4F9240000FB09FCC11708FB01CC84
:104EB000A0FB0801B4F922804FEAE87908FB02F26E
:104EC00003FB0922A8FB0389914461444FEA48424D
:104ED0004FEA494C2D111218C5F580154CEAD83C03
:104EE000B4F920804CEB010C0023E9179B184FEA22
:104EF000C17E4FEAC5704FEAC80141EB0C0C4EEA87
:104F0000550EC01A40F635436EEB0C0EA0FB0301A4
:104F100003FB0E1132463B4605F056FBB4F92A203E
:104F20004D13460B46EAC14602FB05F7D31706FBB5
:104F30000377A2FB06233B44554306FB0355A2FB24
:104F400006232B44550E45EAC315B4F92820B4F9BD
:104F500026402D184FEA636641EB0606D3175143EE
:104F600000FB0311A2FB00230B44D10C41EA4331A7
:104F70006D184FEAE34046EB00032A0AE51742EAC0
:104F80000362191220012B0143EA1473801843EBCA
:104F9000010105F0DBFA9FED070A07EE900A27EE04
:104FA000800ABDE8F8839FED040AFAE79FED030A43
:104FB000F7E700BF0000803B0000C07F000000005A
:104FC00008B52DED028BB0EE408AFFF71FFF9FED75
:104FD000167AC0EE077AC7EE887A17EE900A04F0C8
:104FE0006DFE9FED0D1B41EC100B03F065FB0F49AF
:104FF00053EC102B002004F001FD09A3D3E900239A
:1050000004F0B4FE05F082F9BDEC028B00EE100A4C
:1050100008BD00BFAFF30080EBE2361AC05BC83FAB
:105020000000000040A5E5400000C8420000F03F3D
:1050300030B590F91030013385B004460D461FD1CC
:105040000179006802F072FD2068036829469B68B8
:105050009847206802F075FD21792068022202F04D
:1050600062FD206803685B6998470546206803680D
:105070005B69984740EA052085B2284605B030BDF7
:1050800090F9133001330CD1184B009300238DF8A5
:105090000430174B029368460123ADF80C30FFF73C
:1050A00012FE94F91000002180B203F040F945F09F
:1050B00080012046FFF7CAFD00212046FFF7C6FD0C
:1050C000002105462046FFF7C1FD40EA052085B2D4
:1050D00094F91000012180B203F029F994F91330FA
:1050E0000133CAD1FFF7E8FDC7E700BFDCCC0D00F4
:1050F00020A1070008B5FFF79BFF40BA80B208BDAA
:1051000038B50446FFF754FEFD212046FFF790FF17
:10511000B0F5004F38D0B4F93250E268B4F9343009
:105120002D05A2F59632C5EB803002FB130303F583
:105130008043D91394F830305343DB1203F5004019
:1051400094F9363053439B1243439B1203F50012EC
:10515000B4F92E30534303F500539B134B43DA133A
:1051600094F82C105243D2114A43A3EB221323EAA2
:10517000E373B3F1C85FA8BF4FF0C8531B1300EE31
:10518000103ABAEECB0A38BD9FED010AFBE700BF2B
:105190000000C07F30B590F91030013385B004466F
:1051A0000D4618D10179006802F0C0FC2068036840
:1051B00029469B689847206802F0C3FC2179206843
:1051C000012202F0B0FC206803685B699847C5B211
:1051D000284605B030BD90F9133001330CD1154B82
:1051E000009300238DF80430134B0293684601238B
:1051F000ADF80C30FFF767FD94F91000002180B284
:1052000003F095F845F080012046FFF71FFD0021CF
:105210002046FFF71BFD054694F91000012180B2DE
:1052200003F085F894F913300133D1D1FFF744FD31
:10523000CEE700BFDCCC0D0020A1070008B5F321AC
:10524000FFF7A8FF00F0010008BD38B5882104462B
:10525000FFF750FF8A21A0822046FFF74BFF8C21E9
:10526000E0822046FFF746FF8E2120832046FFF78D
:1052700041FF902160832046FFF73CFF9221A083ED
:105280002046FFF737FF9421E0832046FFF732FFE7
:10529000962120842046FFF72DFF98216084204628
:1052A000FFF728FF9A21A0842046FFF723FF9C21C7
:1052B000E0842046FFF71EFF9E2120852046FFF751
:1052C00019FFA12160852046FFF764FFE12184F8E2
:1052D0002C002046FFF70EFFE321E0852046FFF774
:1052E00059FFE42184F830002046FFF753FFE52101
:1052F00005462046FFF74EFF00F00F0343EA051076
:105300006086E6212046FFF745FFE5210546204659
:10531000FFF740FF031143EA0510A086E72120466E
:10532000FFF738FF84F8360038BD00007FB590F9EC
:105330001030013304460E46154612D1017900683B
:1053400002F0F4FB2068036831469B6898472068A8
:10535000036829469B689847206802F0F2FB04B076
:1053600070BD90F9133001330CD1144B009300231E
:105370008DF80430124B029368460123ADF80C30CF
:10538000FFF7A1FC94F91000002180B202F0CFFFDA
:1053900006F07F012046FFF759FC29462046FFF71B
:1053A00055FC94F91000012180B202F0C0FF94F97D
:1053B00013300133D3D1FFF77FFCD0E7DCCC0D00F5
:1053C00020A10700F8B5DB0002F0070203F0380364
:1053D000134343EA81139DF8186080F83C3090F83D
:1053E00040309DF81C509DF8207066F3471380F8FC
:1053F0004030ED0090F8383007F0070705F0380529
:1054000023F03F033D4304461D4380F8385006F027
:105410000702F221FFF78AFF94F83820C2F3C20393
:1054200002F007019B0043EA411343EAD2122046EF
:10543000F521FFF77BFF94F83C20C2F3C20302F092
:1054400007019B0043EA411343EA92122046F421EC
:10545000BDE8F840FFF76ABF30B5044690F9100088
:10546000421C85B019D1206802F02EFBD0212046C5
:10547000FFF790FE6028A06045D12046B622E021CB
:10548000FFF754FF4FF4967002F0A2F82046FFF7A2
:10549000D5FE054628B36420F6E7012180B202F06C
:1054A00046FF94F91000012180B202F02FFF94F919
:1054B0001300431C04D1FFF7ADFB01F0E5FCD5E779
:1054C000012180B202F022FF94F91100012180B283
:1054D00002F01CFF94F91200002180B202F016FFC6
:1054E000C4E72046FFF7B1FE052300931A460321C7
:1054F0002046CDE90155FFF765FF642002F068F80A
:10550000012005B030BD0020FBE7772310B5037103
:10551000044602F08DFF20602046FFF79DFF30B962
:10552000762323712046BDE81040FFF795BF10BDDC
:10553000F0B5457EBDF81440022D67D0032D00F074
:105540009780012D6AD10589D2432A4412B2002ADC
:105550005BDBB0F90850954257DD0029BEBF5B18F0
:105560001BB20021B0F90A00CD188542C4BF431A0E
:105570001BB2002B49DDC1F3C400DFF81CC102EBF4
:10558000C01211F00701DBB20CEB02001AD0C1F11E
:1055900008053F4EEDB2AB42775D3FBFA5EB030E72
:1055A000FF2646FA0EF637401CF80260012C0CBFAD
:1055B0003E43BE43AB420CF8026026D308390B448D
:1055C000DBB28030072B17D9012C0CBFFF2500253B
:1055D00000F180011A46083AD2B2072A01F8805C2D
:1055E00001F18001F7D8A3F10802C2F3C40201322D
:1055F00000EBC21003F007033BB1264AD25C0378EC
:10560000012C0CBF134393430370F0BD4589D24373
:105610002A44CD180189491B12B209B2002AF4DBD1
:10562000B0F90A509542F0DD0029BEBF5B181BB2ED
:105630000021B0F90870CE18BE42C4BF6B1A1BB26D
:10564000002BE2DDD010802510FB05111248084424
:1056500002F0070101228A40012CD2B203440CD18E
:105660008342D2D010F8014B144300F8014CF7E705
:10567000CD184189491B09B269E7D243D2B28342AE
:10568000C3D010F8014B144000F8014CF7E700BFFD
:10569000C0DD0320B8DD0320C8DD0320F0B5457E62
:1056A000BDF81440022D34D0032D00F09980012D57
:1056B00037D1D5180289521B12B20029C0F28F804F
:1056C000B0F90A508D4240F38A80002ABEBF9B1871
:1056D0001BB20022B0F90870D618BE42C4BFAB1A84
:1056E0001BB2002B7BDDC810802510FB052244482F
:1056F000104401F0070201219140012CC9B203447A
:1057000073D198426BD010F8014B0C4300F8014C58
:10571000F7E70589C9432944D5184289521B09B2C4
:1057200012B200295BDBB0F908508D4257DD002A28
:10573000BEBF9B181BB20022B0F90A00D5188542E3
:10574000C4BF831A1BB2002B49DDC2F3C400DFF8CB
:10575000B0C001EBC01112F00702DBB20CEB01008C
:105760001AD0C2F10805274EEDB2AB42775D3FBFBC
:10577000A5EB030EFF2646FA0EF637401CF8016033
:10578000012C0CBF3E43BE43AB420CF8016026D354
:10579000083A1344DBB28030072B17D9012C0CBF19
:1057A000FF25002500F180011A46083AD2B2072AE7
:1057B00001F8805C01F18001F7D8A3F10802C2F37F
:1057C000C402013200EBC21003F007033BB10E4AE2
:1057D000D25C0378012C0CBF134393430370F0BDDC
:1057E0004589C943294409B267E7C943C9B2984208
:1057F000F5D010F8014B0C4000F8014CF7E700BF62
:10580000C8DD0320C0DD0320B8DD0320F8B50D1E80
:10581000064614461F462DDB00F0E1FBA84229DDB9
:10582000002C27DB304600F0DDFBA04222DD3046B5
:1058300000F0C5FB02281ED0032825D0012804D182
:105840003289E44322442C4615B2002C2146B8BFCD
:10585000E11DC910802311FB03550E49012204F0FC
:1058600007044B5702FA04F464B297420CBF234377
:10587000A3434B55F8BD318972890139E4434D1B6F
:1058800014442DB224B2E0E77389013B5B1B25462B
:105890001CB2DAE7C8DD032038B5402204460D46C5
:1058A000802100F0B3FA064B2360FF2384F82130F7
:1058B00063774FF6FF73E38384F82050204638BDAA
:1058C000F0CC0D0002484FF48062002105F0F6B8DC
:1058D000C8DD032007B590F8223043B10191FFF7EE
:1058E00099F9019903B05DF804EB01F0E3BB0B46B5
:1058F000817F407F012203B05DF804EB02F05ABDC6
:1059000038B590F91D30013304460D461DD090F98D
:105910002100012180B202F00AFD94F91F0000214C
:1059200080B202F004FD94F92100002180B202F05F
:10593000FEFC29462046FFF7CDFF94F92100012106
:10594000BDE8384080B202F0F2BC02F071FD94F97B
:105950001B1002F0EFF802F06BFD036800219B685A
:10596000984702F065FD036829469B68984702F056
:105970005FFDBDE8384002F0E4B870B504460E465D
:1059800026211546FFF7BCFF20460021FFF7B8FF90
:1059900031462046FFF7B4FF20460021FFF7B0FF55
:1059A00029462046FFF7ACFF20460021FFF7A8FF5D
:1059B0002046FF21FFF7A4FF20462F21BDE87040BD
:1059C000FFF79EBF2E21FFF79BBF0000F8B52121F6
:1059D0000446FFF795FF00212046FFF791FF7F2146
:1059E0002046FFF78DFF22212046FFF789FF002187
:1059F0002046FFF785FF07212046FFF781FF94F936
:105A00001D30294F01332AD094F92100012180B2A1
:105A100002F08DFC94F91F00012180B202F087FC96
:105A200094F92100002180B202F081FC012000F0F5
:105A300031FF4FF48065013D17F8011B2046ADB2E0
:105A4000FFF748FF002DF6D1012000F023FF94F965
:105A500021000121BDE8F84080B202F068BC1026A8
:105A600002F0E6FC94F91B1002F064F802F0E0FC8E
:105A70000368A6F110059B684021ADB2984702F07B
:105A8000D7FC0368795D9B680135ADB29847AE429B
:105A9000F5D102F0CDFC02F054F806F110039EB2ED
:105AA000B6F5826FDCD1F8BDC8DD032038B590F9BA
:105AB0001D300177013304460D46C27600F0C980DF
:105AC00090F91F00012180B202F020FC94F921001E
:105AD000012180B202F01AFC94F82230002B00F071
:105AE000A68094F92100012180B202F020FCFFF78A
:105AF00091F8012101F0D9F9FFF78CF8102101F09C
:105B0000B3FAFFF787F8002101F0E2F9FFF782F816
:105B100001F0BAF994F92000012180B202F0F6FBFD
:105B200094F92000012180B202F001FC012001F073
:105B30004FFD94F92000002180B202F0F8FB0A200A
:105B400001F046FD94F92000012180B202F0EFFB44
:105B50002046AE21FFF7D4FE2046D521FFF7D0FE28
:105B600020468021FFF7CCFE2046A821FFF7C8FE83
:105B700020463F21FFF7C4FE2046D321FFF7C0FE99
:105B800020460021FFF7BCFE20464021FFF7B8FE6B
:105B90008D212046FFF7B4FE012D0CBF10211421EA
:105BA0002046FFF7ADFE20462021FFF7A9FE204644
:105BB0000021FFF7A5FE2046A121FFF7A1FE204608
:105BC000C821FFF79DFE2046DA21FFF799FE204607
:105BD0001221FFF795FE81212046FFF791FE012D4E
:105BE0000CBF9F21CF212046FFF78AFED9212046F6
:105BF000FFF786FE012D0CBF2221F1212046FFF781
:105C00007FFE2046DB21FFF77BFE20464021FFF789
:105C100077FE2046A421FFF773FE2046A621FFF75A
:105C20006FFE2046AF21BDE83840FFF769BE94F90A
:105C30001D00012180B202F069FB94F91E000121D0
:105C400080B202F063FB94F82230002B3FF462AF85
:105C500047E702F0EDFB01F037FF5BE72DE9F04F7E
:105C600085B01F46BDF93880BDF83C30A8EB02096D
:105C7000A7EB010AB9F1000FB8BFC9F10009BAF1E9
:105C8000000FB8BFCAF1000AD14583460C4615463D
:105C900004DD3A462C4647460D469046BC4205DD9B
:105CA0002A464546904622463C4617463E1BB2B21F
:105CB0000092A8EB0502002AB8BF52420192C6F337
:105CC000C03202FA86F64545B4BF01224FF0FF32DA
:105CD00076100292BC421CDCDBF800200393D14515
:105CE000D2F81080C7BF294622462A462146584688
:105CF000C047019A039BB61AB1B236B2002E05DA3C
:105D0000029A1544009A56182DB236B2013424B2C4
:105D1000E0E705B0BDE8F08F2DE9F347BDF82C8032
:105D20000768BDF92890CDF800800446FF69164643
:105D30008A461D46B8472368CDF8008009F1FF3236
:105D40003244DF6951462B46204612B2B8472368D9
:105D5000CDF800809F6932464B4651462046B847F1
:105D60006B1E03EB0A012368CDF828809D6932463B
:105D70004B4609B22046AC4602B0BDE8F04760474A
:105D800037B5013B13440468BDF8185001951BB2A8
:105D9000009364690B46A04703B030BD37B5BDF82A
:105DA00018500468CDE90025013B0B4464691BB21F
:105DB000A04703B030BD2DE9F347BDF92890BDF8E9
:105DC0002C80054692460C46CE18B4420BDA2B685E
:105DD000CDF800809F6921464B4652462846013443
:105DE000B84724B2F1E702B0BDE8F08713B5026806
:105DF0000191B0F90E100091546AB0F90C300022F4
:105E00001146A04702B010BD7047000030B5428176
:105E1000C2814FF0FF320024054D426101224460EF
:105E200005600181818104610283827630BD00BFFB
:105E300024D20D002DE9F04F2DED028B8BB00646DC
:105E40000391BDF858100591BDF85C100691B0F9AA
:105E50000C1003989DF86050814251DDB6F90E1088
:105E600091424DDD062111FB0504002C48DD02EBBB
:105E7000C504002C44DD03EB8303099393B207911F
:105E800000240493052C1CBF2D4B099A049F16BFB8
:105E90001B1900239B5C0293039AABB2089304FB8B
:105EA00005F313FA82F31BB204EB020A08EE103A70
:105EB0004FF000080FFA85F90FFA8AFA029BDB0708
:105EC0002FD5012D336820D1049AD3F810B0059B4B
:105ED000424412B251463046D847029B5B080293B7
:105EE000089B08F101081F44B8F1080FBFB2E5D1C3
:105EF000079B013B013413F0FF0364B20793C1D148
:105F00000BB0BDEC028BBDE8F08F059ACDE9009295
:105F100018EE101AD3F824B03AB24B463046D847A0
:105F2000DBE7DDE905239342D7D0012D336805D1A6
:105F3000049AD3F810B0069B4244CAE7069AE5E7F4
:105F400020CD0D0030B50A2985B0044607D1027E68
:105F5000638A03EBC20363820023238221E00D29BD
:105F60001FD0037E0293C38A0193838A0093B0F902
:105F700012200B46B0F91010FFF75CFF217E238A38
:105F800001EB410003EB4003A07E1BB20A462382D3
:105F900038B1B4F90C006FF0050505FB01018B4227
:105FA000D6DC012005B030BD018242827047012954
:105FB00038BF012101767047C18281827047407EDF
:105FC000704701F00303B0F90A204376C907B0F91E
:105FD000083059BF8381C2818281C3817047B0F983
:105FE0000C007047B0F90E00704708B5D0F8D0002B
:105FF00003681B6B9847003818BF012008BDF8B52F
:1060000006460F461446C4B1D6F8D00003681B6B91
:10601000984708B90020F8BDD6F8D000FA2C0368DC
:106020002546A8BFFA25DB682A463946984783B239
:10603000E41A9D42A4B2E6D0ECE70120EBE72DE99B
:10604000F8430646884691461F461D460024D6F86A
:10605000D00003681B6B9847D0B1002D18DBD6F831
:10606000D00003681B69984760B1D6F8D000036878
:106070005B69984708F804000134A4B24C4507D086
:106080003D46ECE70A3D0A202DB201F0A1FADEE719
:106090002046BDE8F88370B5044600F1220596223B
:1060A0000021284604F00AFD6168284604F03CFD02
:1060B000D4F8D0002289036829465E6A0023B047DD
:1060C000003818BF012070BD10B50446D0F8D000CC
:1060D00003681B6B984720B1D4F8D0000368DB6AD3
:1060E0009847012010BD70B503689B680446984727
:1060F000C8B9204600F095FA042570B1013D15F0AD
:10610000FF050AD0204600F0B7F841F2883001F0D0
:106110005FFA204600F085FAEFE7236820469B6887
:10612000BDE87040184770BD37B504460846019178
:1061300004F002FD03122370607085B202340199ED
:106140002A46204604F034FD601903B030BD00003B
:1061500030B502810A4A0B4DC0E90323039B43611A
:106160000023C0E90051C0E92F33C0E93133C0E951
:106170000633C0F8CC300384A0F8B83030BD00BF7F
:1061800081C90D0068D40D002DE9F74F164602684D
:106190001BB297690193012205460C46B847C7B266
:1061A000012F019B03D0002003B0BDE8F08F04F164
:1061B000010804F1040A4FF000092A680193D2F89B
:1061C00018B0414601222846D847C0B20128EAD17A
:1061D000C2454FEAC710E6D018F8012B019B02F028
:1061E0007F0112F0800F01FB079916D1A8EB040480
:1061F000A7B2341B2A68013C4C45D2F818A03DBF19
:1062000006F1FF32D21B92B21FFA89F241462846AC
:10621000D047C0B2384480B2C6E70746CDE7000099
:106220002DE9F041DFF8308005460C4616461F4642
:106230003B46962221462846FFF7A6FF48B1237821
:10624000B6EB131F05D001F059FB414601F0BFF832
:10625000EEE7BDE8F08100BF78D20D000231C9B28F
:1062600009299ABF024B53F821000248704700BF2A
:1062700084D40D0089D20D0010B5E02380F82230BF
:106280000146002380F8233051F8223B04465B6925
:1062900002229847236820461B69BDE81040184732
:1062A00000F1BC0230B5134600F1D00453F8045B92
:1062B0008D4209D0A342F9D1002352F8044B2CB9E6
:1062C00000EB8300C0F8BC10012003E00133052B74
:1062D000F3D1002030BD2DE9F04F00F122098BB23F
:1062E00085B0962249460546FFF74EFF0646F0B1B7
:1062F00095F82570009705F1BC0A4FF0000805F1EC
:10630000260B5AF8044B6CB121680191084604F041
:1063100013FCB84206D101993A46584604F014FCE1
:10632000002845D008F10108B8F1050FE9D1002097
:106330003BE0EA1992F8260092F827A04AEA002AE0
:1063400014220021601D04F0B9FB009BC3F57F44BB
:10635000FC34264405EB8808A6EB0B06B6B2152ED6
:10636000D8F8BC0007F1040128BF1326594432466F
:106370004944053004F088FBD8F8BC305E8395F8BA
:10638000223003F00603022B0DD14FF41073ADF849
:106390000C302B689AFA9AFA5B69ADF80EA00422C9
:1063A00003A928469847D8F8BC0005B0BDE8F08F8F
:1063B00095F822B00BF0060BBBF1020FB9D0824664
:1063C0008346BDE72DE9F84304460D464FF000082B
:1063D00000F122074FF0C009E5B1236884F822904C
:1063E00084F823805B690222394620469847064696
:1063F00068B14FF4FA730D2239462046FFF710FFBB
:1064000094F82230D02B02D13046BDE8F883013D0C
:10641000EDB2E1E72E46F7E738B50546084610230A
:1064200000F8023B0C462949FFF77EFE0423037067
:1064300002234370AB698BB11B787BB10623437099
:1064400095F82030012B39D10E23437095F8213077
:10645000012B02BF437843F0200343702B691B7864
:106460001BB1437863F07F0343706B691B781BB1EA
:10647000437843F040034370012383702C23C3709F
:10648000E9680B78F3B10430FFF74EFEA96931B12A
:106490000B7823B1FFF748FEE969FFF745FE29694C
:1064A0000B780BB1FFF740FE69690B780BB1FFF772
:1064B0003BFE001BC0B2831E637038BD022BC5D1EA
:1064C0001E23C2E7037143710630DFE797D20D0048
:1064D0002DE9F743054610460E469846019204F012
:1064E0002BFB9DF82C90BDF82870019984B2B9F16E
:1064F000000F35D102344FEA49033046A4B243F0CD
:1065000030033C4400F8013BA4B2224604F07F0370
:106510007F2A88BF43F080037F2A00F8013B4FEABF
:10652000D414F2D8FFF700FE0346B9F1000F0CD0E7
:10653000B5F8B820120A0270B5F8B8204270B5F864
:10654000B82001320233A5F8B8203A464146184631
:1065500004F09AFA3844801B80B203B0BDE8F0839F
:106560000434C8E773B59DF8186000F122050446AD
:10657000CDE9003613460A462946FFF7A9FF2368EE
:1065800002465B6929462046984710B9002002B0B0
:1065900070BD002EFBD04FF4FA7396222946204698
:1065A000FFF7F2FD0428F1D194F822301B11042BDF
:1065B000ECD1A38CB4F8B8005BBA01339BB2C31A18
:1065C00058425841E3E730B585B0044610461D46B1
:1065D0000391029204F0B0FADDE9022183B2009542
:1065E0002046FFF7BFFF05B030BD38B51D468223FA
:1065F0000B70B0F8B8301B0A8B70B0F8B830CB70A5
:10660000B0F8B8300C460133A0F8B8301146201D60
:10661000FFF78AFD00F8015B001BC0B2831E6370A8
:1066200038BD2DE9F0410368DB680446984700282F
:106630004BD004F1220529462046FFF7EDFE2368E2
:1066400082B25B6929462046984700283DD041F236
:106650007073962229462046FFF796FDC0B20428A3
:1066600033D1638CB3F5087F2FD194F8250010B196
:1066700040B2BDE8F08104F1BC0704F1D00857F83E
:10668000043BF3B1032657F8042C2946137912680A
:106690002046FFF7AAFF236882B25B69294620469D
:1066A000984790B14FF4FA73092229462046FFF724
:1066B000B7FD30B9013E16F0FF06E4D16FF00100DE
:1066C000D7E7B845DBD10020D3E74FF0FF30D0E764
:1066D00010B5C0E90012037210BD1FB504460A22AE
:1066E000084601A900F00AFDD4E90001237A01AAB5
:1066F000FFF769FF04B010BDD0B557EC106B90B038
:1067000004460B4600220949684600F037FB324632
:106710003B46694605A800F031FBD4E90001237A25
:1067200005AAFFF750FF10B0D0BD00BF9CD20D00EE
:1067300010B503710023C0E90833C0E90A3341638F
:1067400002604383C361036310BD0022C0E90422D9
:10675000016070478068704710B5044600F0A2F8E9
:10676000A369C01A074B98420AD9D4E9043293FBB3
:10677000F2F3E36000F096F80023C4E90433A0616B
:1067800010BD00BF20A1070010B583684360044618
:10679000008801F0F8FD2369A06018446369206156
:1067A000013363612046FFF7D7FFD4E90112511A84
:1067B000B1F5C87F10DCB2F52F7F0DDCE368D31A8A
:1067C000962B0BDCC82902DDB2F52F7F08D1322BC6
:1067D000CCBF0220032010BD0020FCE70120FAE717
:1067E0000220F8E708B5024B1B689B68019308BDBF
:1067F0006802030008B5024B1B68DB68019308BD03
:106800006802030008B5024B1B685B68019308BD72
:106810002C02030008B5024B1B689B68019308BD5E
:106820002C02030008B5024B1B68DB68019308BD0E
:106830002C02030008B5024B1B681B69019308BDBD
:106840002C02030008B5024B1B685B69019308BD6D
:106850002C02030008B5024B1B681B6B019308BD9B
:106860002C02030008B5024B1B68DB6C019308BDCA
:106870002C02030008B5024B1B685B69019308BD3D
:106880006C02030008B5024B1B685B68019308BDEE
:106890001802030008B5024B1B68DB68019308BDB2
:1068A0001802030008B5024B1B685B69019308BD21
:1068B0001802030008B5024B1B689B6D019308BDCD
:1068C0001802030008B5024B1B685B6E019308BDFC
:1068D0001802030008B5024B1B685B6C019308BDEE
:1068E0004802030008B5024B1B689B6C019308BD6E
:1068F0004802030008B5024B1B685B69019308BDA1
:106900006402030008B5024B1B681B6A019308BDB3
:106910006402030008B5024B1B689B6A019308BD23
:106920006402030008B5024B1B681B68019308BD95
:106930003C02030008B5024B1B68DB68019308BDED
:106940003C02030008B5024B1B681B69019308BD9C
:106950003C02030008B5024B1B685B69019308BD4C
:106960003C02030008B5024B1B689B69019308BDFC
:106970003C02030008B5024B1B68DB69019308BDAC
:106980003C02030008B5024B1B681B6A019308BD5B
:106990003C02030008B5024B1B689B6A019308BDCB
:1069A0003C02030008B5024B1B68DB68019308BD7D
:1069B0002802030008B5024B1B689B69019308BDC0
:1069C0002802030008B5024B1B68DB69019308BD70
:1069D0002802030008B5024B1B681B6A019308BD1F
:1069E0002802030008B5024B1B685B6A019308BDCF
:1069F0002802030008B5024B1B689B6A019308BD7F
:106A00002802030008B5024B1B68DB6A019308BD2E
:106A10002802030008B5024B1B681B6B019308BDDD
:106A20002802030008B5024B1B685B6B019308BD8D
:106A30002802030008B5024B1B681B6C019308BDBC
:106A40002802030008B5024B1B681B6D019308BDAB
:106A50002802030008B5024B1B689B69019308BD1F
:106A60003802030008B5024B1B68DB69019308BDBF
:106A70003802030008B5024B1B681B6A019308BD6E
:106A80003802030008B5024B1B689B6A019308BDDE
:106A90003802030008B5024B1B681B6B019308BD4D
:106AA0003802030008B5024B1B689B6B019308BDBD
:106AB0003802030008B5024B1B681B68019308BD30
:106AC0003002030008B5024B1B689B68019308BDA8
:106AD0003002030008B5024B1B68DB68019308BD58
:106AE0003002030008B5024B1B681B69019308BD07
:106AF0003002030008B5024B1B685B69019308BDB7
:106B00003002030008B5024B1B68DB69019308BD26
:106B10003002030008B5024B1B681B6A019308BDD5
:106B20003002030008B5024B1B685B6A019308BD85
:106B30003002030008B5024B1B68DB6B019308BDF4
:106B40003002030008B5024B1B681B6C019308BDA3
:106B50003002030008B5024B1B685B6C019308BD53
:106B60003002030008B5024B1B681B68019308BD87
:106B70004C02030008B5024B1B685B68019308BD1B
:106B80004C02030008B5024B1B681B69019308BD4A
:106B90004C02030008B5024B1B685B69019308BDFA
:106BA0004C02030008B5024B1B689B69019308BDAA
:106BB0004C02030008B5024B1B68DB69019308BD5A
:106BC0004C02030008B5024B1B681B6A019308BD09
:106BD0004C02030008B5024B1B685B6B019308BDB8
:106BE0006002030008B5024B1B681B6D019308BDD2
:106BF0006002030008B5024B1B681B68019308BDC7
:106C00002002030008B5024B1B685B68019308BDB6
:106C10002002030008B5024B1B685B69019308BDA5
:106C20002002030008B5024B1B689B6D019308BD51
:106C30002002030008B5034B1B68D3F8883001938A
:106C400008BD00002002030008B5034B1B68D3F801
:106C50009430019308BD00002002030008B5024BE8
:106C60001B685B68019308BD4002030008B5024B36
:106C70001B689B68019308BD4002030008B5024BE6
:106C80001B68DB68019308BD4002030008B5024B96
:106C90001B681B69019308BD4002030008B5024B45
:106CA0001B685B69019308BD4002030008B5024BF5
:106CB0001B689B69019308BD4002030008B5024BA5
:106CC0001B68DB69019308BD4002030008B5024B55
:106CD0001B681B6A019308BD4002030008B5024B04
:106CE0001B681B6B019308BD4002030008B5024BF3
:106CF0001B685B6B019308BD4002030008B5024BA3
:106D00001B689B68019308BD4402030008B5024B51
:106D10001B685B69019308BD4402030008B5024B80
:106D20001B68DB6A019308BD4402030008B5024BEF
:106D30001B681B6B019308BD4402030008B5024B9E
:106D40001B68DB6B019308BD4402030008B5024BCE
:106D50001B681B68019308BD1C02030008B5024BA9
:106D60001B685B68019308BD1C02030008B5024B59
:106D70001B689B68019308BD1C02030008B5024B09
:106D80001B68DB68019308BD1C02030008B5024BB9
:106D90001B681B69019308BD1C02030008B5024B68
:106DA0001B685B6A019308BD1C02030008B5024B17
:106DB0001B681B6B019308BD1C02030008B5024B46
:106DC0001B68DB6B019308BD1C02030008B5024B76
:106DD0001B685B6C019308BD1C02030008B5024BE5
:106DE0001B68DB6C019308BD1C0203000022406895
:106DF0001146FFF76BBF002240681146FFF776BFD0
:106E000040680022FFF76ABF4068002281F001015C
:106E1000FFF754BF002340681A461946FFF746BFE4
:106E2000002340681A461946FFF738BF0022406821
:106E30001146FFF72BBF002240681146FFF716BF2F
:106E4000406800220221FFF719BF002340681A465C
:106E5000FFF704BF024B03225A60024A1A607047D0
:106E600044E60320B4D40D000021FFF76BBE0021DF
:106E7000FFF770BE10B5044608462170FFF742FECA
:106E800000236360204610BD10B504460078FFF76C
:106E9000EBFF48B920784FF6FF71FFF70BFE207823
:106EA000BDE81040FFF7E3BF10BD13B504460078FE
:106EB0000191FFF7D9FF019940B92078FFF702FE51
:106EC000207802B0BDE81040FFF7D1BF02B010BD7E
:106ED00013B5044600780191FFF7C6FF019940B948
:106EE0002078FFF7F7FD207802B0BDE81040FFF7EB
:106EF000BEBF02B010BD0078FFF7B9BF400830B583
:106F00001860002418688842E5B206D90134082CBC
:106F100002D040081860F5E70725024B5B5D13704F
:106F200030BD00BFE0D40D002DE9F04306468FB020
:106F300000780D46FFF798FF00281BDB34781422F9
:106F4000002109A803F0BAFD0B23002209A920465D
:106F5000ADF82430FFF7E6FD9DF82D3013B19DF814
:106F60002C4054B10027B946B84601242B795CB1B6
:106F7000C3B100200FB0BDE8F083DDF830809DF88C
:106F800034909DF83570F1E7002B35D1AB6843455F
:106F900008D18DF820908DF82170BDF82020AB89A4
:106FA0009A42E6D00023A9688DF80F300A9804AB06
:106FB0000DF10F02FFF7A2FF297984B989B9AB68F7
:106FC00043450ED38DF820908DF82170BDF8202018
:106FD000AB899A4205D1049B434502D1C9E70029F8
:106FE000F9D1002301936B7B00939DF80F202B7B3D
:106FF0003078FFF79FFDBCE7CDE9004423462246E9
:107000000121F5E72DE9F04188B00023044600781E
:1070100002930E461746FFF727FF054600BB94F87C
:1070200000800146142203A803F048FD0B232A46E2
:1070300003A94046ADF80C30FFF774FD04988DF8B5
:10704000075002AB0DF1070207FB06F1FFF756FFF1
:1070500020789DF80710FFF745FD2078FFF707FF20
:10706000029808B0BDE8F08138B5044600780D46B6
:10707000FFF7FAFE0346D0B9616899B10C4A12F8DD
:10708000010B854202D00133082BF8D10133DBB26A
:107090000122D9402046FFF7B5FF2078BDE83840EF
:1070A000FFF7E5BE20782946FFF71CFDF5E738BD60
:1070B000E0D40D0008B50078FFF71CFDC0B208BD94
:1070C00010B5094B094C022200201A60084B2060C1
:1070D000A080A071A360FFF795FD2046054A0649F0
:1070E000BDE8104001F0CCB958E603204CE603207F
:1070F0000000FFFFA8E3032001410D002DE9F0414E
:10710000931E8CB0222B4FF000030D4614468DF8D1
:107110002C3027D900282ADA2E462D2306F8013BE9
:1071200040420A240DF12B074FF001082246014688
:1071300001A803F087FC029B0198092BCCBF3722E2
:10714000302252FA83F307F8013908F101080028C8
:10715000ECD14246791C304603F088FC28460CB03E
:10716000BDE8F0810A2AD5D018B12E46DAE70A2404
:10717000FAE730238DF82B302E460DF12A074FF019
:107180000208E6E710B504460068FFF7E7FD204671
:1071900010BD10B50446006808B1FFF7DFFD0023FD
:1071A000C4E90133236010BD38B504460D460068BC
:1071B0000131FFF7DBFD10B1C4E90005012038BD46
:1071C00010B50368044623B143688B4201D3012004
:1071D00010BD2046FFF7E8FF0028F9D0A368002B78
:1071E000F5D122681370F2E737B50D4611460192CA
:1071F0000446FFF7E5FF019A28B92046FFF7C9FFCB
:10720000204603B030BDA2602946206803F02EFC62
:107210002268A3680021D154F2E7002313B5C0E926
:10722000003304468360037341B10846019103F0C3
:1072300083FC019902462046FFF7D6FF204602B0A4
:1072400010BD38B5054600680C4668B16A688B68A1
:107250009A4207D3096803F067FCA368AB60002378
:10726000A36038BDFFF77AFD23682B6063686B600D
:10727000A368AB600023C4E90033F1E7884210B58E
:10728000044601D0FFF7DDFF204610BD13B50446CC
:1072900059B10846019103F04FFC0199024620467E
:1072A000FFF7A2FF204602B010BDFFF772FFF9E71B
:1072B00058B50E462AB121B184689C4202D80023F9
:1072C0000B7058BDE41A013A0168944228BF144675
:1072D00019442246304603F06BFC00233355F0E797
:1072E000F8B59A420F461D460C4988BF134614460E
:1072F000064684BF2C461D46FFF78FFFBA68A242A0
:107300000AD33968AA4294BFC4EB0202C4EB050257
:1073100021443046FFF768FF3046F8BD81C90D00B3
:1073200010B50446006808B1FFF7DCFA204610BD2E
:1073300010B5064C002320462360FFF7CBFA204609
:10734000034A0449BDE8104001F09AB85CE6032006
:10735000A8E3032021730D00F8B506460D468F18EB
:107360000024BD420CD0336815F8011B9B683046E1
:107370009847031E01DB1C44F3E7002C08BF1C46A2
:107380002046F8BD13B50446084659B1019103F0F3
:10739000D3FB23680199DB680246204602B0BDE8B2
:1073A0001040184702B010BD08B5FFF7EBFF08BD4D
:1073B00003689B68184738B50D210546FFF7F8FFAD
:1073C0000A2104462846FFF7F3FF204438BD38B5AC
:1073D0000546FFF7D7FF04462846FFF7ECFF204499
:1073E00038BDFFF7F4BF30B58BB000238DF82430E3
:1073F000012A98BF0A2209AC0D46B1FBF2F101FB4C
:10740000125303F0FF03092B94BF30333733DBB241
:10741000AA4204F8013DEFD92146FFF7B3FF0BB0B4
:1074200030BD2DE9F04186B000AF05460E46381D4F
:10743000142114463B60FFF7B1FC13280ED8391D08
:107440002846FFF79FFF04461EB12846FFF7B3FF0B
:10745000044420461837BD46BDE8F08100F108031A
:1074600023F00703E846ADEB030D2246411C3B68C1
:107470006846FFF793FC69462846FFF783FF0446FA
:10748000C546E1E7014B024A1A60704760E60320F7
:10749000F0D40D0008B50020FFF748FC28B1FFF735
:1074A00035FC80F00100C0B208BD0120FCE70000FF
:1074B000FAEE087AB4EEE70AF1EE10FA08B511D444
:1074C000F2EE0C7AB4EEE70AF1EE10FA0ADCDFED28
:1074D000067A60EE277A17EE900A03F0C5F8034BA0
:1074E000C3E9000108BD00BF0000614570E603204C
:1074F00030B504461848D0E90010521840EB030399
:107500001648D0E90010521893B040EB0303CDE9C0
:10751000002324220DEB0200002103F0CFFA002506
:1075200009A96846FFF75AFC1622294603A80295C6
:1075300003F0C4FA02A909A803F04CFA02A803F068
:10754000FBFA12AB184402A900F8415C2046FFF791
:1075500064FE204613B030BD70E6032068E60320C9
:1075600010B50020FFF7A6F90446A0B9FFF742FBCB
:10757000012810D12046FFF755FB60B9FFF78AFFBD
:1075800010B9FFF7BBFBF9E7FFF784FFBDE8104038
:107590000020FFF78FB9204610BD1FB5FFF7E0FFB1
:1075A00010220021684603F089FA00216846FFF79F
:1075B00089F9009805B05DF804FB0000024B1A68D9
:1075C000024B1A60704700BFC8E1032064E6032045
:1075D0000021FFF71FBB10B58368044613B10322D7
:1075E00001469847204610BD10B50446FFF7F3FF4B
:1075F000204610BD0348044A04490023836000F07C
:107600003FBF00BF78E60320A8E30320E9750D0023
:10761000014B1860704700BFD0E1032008B50B4B49
:1076200043B100F06BF903681B699847002801DD3E
:10763000AFF30080064B43B100F0DEF903681B692D
:107640009847002801DDAFF3008008BD000000006E
:107650000000000008B5FFF7E1FFFFF723F9014B39
:10766000186008BDD8E703200248034A0349121AEC
:1076700003F0FCB900F4032004F40320A8DA0D00A1
:1076800007B5002300931A466FF07701FFF7DCFA85
:1076900003B05DF804FB000007B543880A2B08D04F
:1076A000502B0BD1094B1B684BB103B05DF804EBB9
:1076B0001847FFF7E5FF03B05DF804FB00230093D4
:1076C0001A466FF07701FFF7BFFAF4E78CE6032064
:1076D00038B5124C1248134D0021FFF777FB236891
:1076E000AB42114B0CBF012200221A7002D0FFF7EF
:1076F000BBFF2560FFF7C6F8044603F0E7F90B4B24
:1077000013B12046AFF3008000210848FFF716FBB5
:10771000BDE8384006480021FFF78CBA00F403208A
:1077200011760D001E1C279A88E603200000000039
:1077300099760D00704710B51821044600F0A5FE9B
:10774000204610BDF0B5037D062B8DB00E4600F12E
:1077500004074FF0000412D000F1080515F8011DD0
:107760000A223046FFF73FFEAF42044419D0002CF6
:10777000F4D02E213046FFF71BFE0444EEE72F2302
:107780006A4639460A208DF80040FFF7B3F868468C
:1077900003F0D2F933680246DB6869463046984701
:1077A000044620460DB0F0BD10B5054B044611222D
:1077B00040F8043B002103F081F9204610BD00BFD2
:1077C00018D50D000346074A10B543F8042B01F104
:1077D000100251F8044B43F8044B9142F9D10A7856
:1077E0001A7010BD18D50D00037D042B04D140681C
:1077F000003818BF01207047062B07D143683BB9FA
:1078000083682BB9C3681BB90069F1E70020704792
:107810000120704710B59DF8084044EA032343EA6D
:10782000024242EA016104234160037510BD13B5B1
:10783000CB7800938B784A780978FFF7EBFF02B09A
:1078400010BD41747047704708B50021007CFFF7F8
:10785000A9F940EAE07008BD08B50121007CFFF7F6
:10786000A1F940EAE07008BD08B5007CFFF792F985
:1078700020EAE07008BD08B5007CFFF783F920EA34
:10788000E07008BD13B50446007C0191FFF782F952
:107890000028019901DC607C20B1207CFFF78AF987
:1078A00020EAE07002B010BD007CFFF78BB910B584
:1078B0001421044600F0E9FD204610BD10B54FF438
:1078C0007A73044608460021C4E90113044B23607F
:1078D0000123207463741146FFF744F9204610BD5C
:1078E0002CD50D00007C0022FFF744B910B51422FE
:1078F0000446002103F0E2F8204610BD10B5104CFC
:1079000088B003A8FFF7F2FF2178BFF35B8F11F077
:10791000010111D120460191FCF7CEFB019958B12C
:1079200003AA0848FFF7CAFF2046FCF7CAFB064A2D
:107930000649044800F0A4FD024808B010BD00BF8D
:1079400090E6032094E60320A8E3032047780D0087
:1079500070474174704708B5007CFFF71BF820EAB8
:10796000E07008BD08B5007CFEF7ECFF20EAE0708F
:1079700008BD08B5007CFEF7F5FF40EAE07008BDE1
:1079800008B5007CFEF7E6FF40EAE07008BD007C29
:10799000FEF7F0BF37B5457C04462DB1207C03B01F
:1079A000BDE83040FEF7C6BF007C0191FEF7F2FF54
:1079B00000280199F2DC284603B030BD10B514212F
:1079C000044600F062FD204610BD000010B54FF0E7
:1079D000000C0446084611464FF47A72C4E901C20D
:1079E000044A22600122207462741A46FEF79AFF4C
:1079F000204610BD5CD50D0013B50E4C2178BFF3A9
:107A00005B8F11F0010112D120460191FCF754FB6C
:107A1000019960B1084A094B0948FFF7D7FF204692
:107A2000FCF74FFB074A0849054800F029FD0448C8
:107A300002B010BDA8E60320ACE6032030E7032027
:107A4000B4E70320A8E3032051790D007047F8B58F
:107A5000064615460C468F18BC4206D0336814F80B
:107A6000011B9B6830469847F6E72846F8BD007C26
:107A70000022FEF7AFBF007C0021FEF7B3BF007C01
:107A80000021FEF7B7BF007C0021FEF7BBBF007CE2
:107A90000021FEF7BFBF10B51421044600F0F5FC2D
:107AA000204610BD10B54FF47A73044608460021F5
:107AB000C4E90113034B236020741146FEF7BAFF9B
:107AC000204610BD8CD50D000023007C1A461946B7
:107AD000FEF768BF7FB500221423CDE90122ADF87F
:107AE00004300B788DF808304B680393CB6804930F
:107AF000007C0B7A059301A9FEF7A4FF07B05DF89F
:107B000004FB1FB5003B8DF800104FF0640103919A
:107B100018BF0123694601928DF80830FFF7DAFF9C
:107B200005B05DF804FB0123FFF7EBBF007C0022EA
:107B3000FEF740BFC9B2FFF7F9BF007C0022FEF795
:107B400041BF0121FFF7F9BF13B503688DF8071096
:107B5000DC6B01224FF0FF330DF10701A04702B0AB
:107B600010BD10B40368DC6B4FF0FF33A4465DF822
:107B7000044B604713B5134602688DF80710D46BA9
:107B80000DF107010122A04702B010BD704738B5C2
:107B900043691A68002A054610DAB3F88620B3F85C
:107BA00084309A420AD103681B699847044628B971
:107BB0002B682846DB6A9847204638BD0120FCE741
:107BC00043691868C043C00F70477047064B99421D
:107BD00010B500F10C0405D0084600F05BFC00284D
:107BE00008BF0024204610BDE8D40D0010B5AC211C
:107BF000044600F04AFC204610BDFCF750BA2DE9BF
:107C0000F0414FF0000886B01D46C0F804800446DD
:107C10000E4617464146102202A802F04FFF6B1C89
:107C200009D04FF47A70B5FBF0F3CDE9023800FBD0
:107C3000135358430490606910230093006802AB0B
:107C400041F2050240F6FF71FEF704FF002807DA53
:107C5000FFF7B4F803686360002006B0BDE8F08168
:107C60006069002300683A463146FEF713FF031EA1
:107C7000EEDB1846F1E7000070B54D69054B044690
:107C80008C3544F8043B06460FCD0FC42B68237097
:107C9000304670BD18D50D0010B54369B3F8862085
:107CA000B3F884309A42044605D06369B3F884205F
:107CB0001344187910BD03681B6998470028F4D154
:107CC0004FF0FF30F6E710B54369B3F88620B3F8FC
:107CD00084309A42044608D06369B3F88420511C6A
:107CE000A3F884101344187910BD03681B699847E2
:107CF0000028F1D14FF0FF30F6E7F8B54369174699
:107D0000B3F88620B3F884309A4205460E4616D062
:107D10006969B1F88430B1F88640E41ABC4228BFE2
:107D20003C46043322461944304602F09FFE6A69FD
:107D3000B2F884302344A2F884302046F8BD0368AA
:107D40001B6998470028E3D14FF0FF34F5E70000A6
:107D50002DE9F0439846036893B00D460024DB6A92
:107D600006461746984728466B4622462146009409
:107D7000FEF740FD0546002863D1009B002B4BD049
:107D80005B69002B48D006A8FFF70EFD009B5C69DD
:107D90006378022B04D1211D06A8FFF748FD26E0D9
:107DA0000A2B24D11122294601A802F087FEA368DC
:107DB000002B38D004F108030DF1040C18341868B6
:107DC0005968624603C20833A3429446F7D106239A
:107DD00001A90CA88DF81430FFF7F4FC0DF1340C58
:107DE000BCE80F0007AC0FC4DCF80030237006A815
:107DF000FFF7FAFC80B1336807ADD3F82090124B3F
:107E00000C930FCD0DAC0FC42B6823703A4643463C
:107E10000CA93046C84705460098FEF7E3FC284603
:107E200013B0BDE8F083E368002BC3D14FF6FF70B9
:107E3000D4F81090FEF766FD8145BBD104F1140122
:107E4000AAE72546E8E700BF18D50D0042690023E0
:107E5000A2F884304269A2F8863070472DE9F041DB
:107E60001F4603680C46DB6A8AB0054616469847EB
:107E7000237DD5F81480042B0CBF02200A20062293
:107E80000121FEF70FFEC8F800006B691B68002B8C
:107E900008DA2B682846DB6A0024984720460AB097
:107EA000BDE8F0812846FFF7D1FFB7B1002303A951
:107EB000F8B20393ADF81030FEF7DCFC0028E8D1EF
:107EC000686906230093006803AB41F20B0240F699
:107ED000FF71FEF7BFFD0028DBD11C22002103A8A3
:107EE00002F0ECFD237D042B1DD14FF407733046C7
:107EF000ADF80C30FEF70EFDADF80E006068FEF731
:107F000001FD04906B691C22186803A9FEF7B2FDFD
:107F10000028BED104340FCC6D698C350FC52368A1
:107F20002B700124BAE740F61C233046ADF80C3024
:107F3000FEF7F0FC05AEADF80E00231D04F11407AA
:107F400018685968324603C20833BB421646F7D157
:107F5000D8E7000030B54269B2F886308BB00446ED
:107F60002BB1B2F884209A4201D1FFF76FFF61690B
:107F70000868002818DBB1F886507F2D14D804312A
:107F80000823C5F180022944FEF77CFD002813DD9B
:107F90006369B3F886200AB9A3F884206369B3F84B
:107FA00086201044A3F886006369B3F88600B3F80E
:107FB0008430C01A0BB030BDFEF700FF03680B2BF6
:107FC000F2D0FEF7FBFE03680B2BEDD0202300253B
:107FD000CDE90235FEF7F2FE03680193084B09492B
:107FE000009302AA2B463220FEF7FCFD6369186855
:107FF000FEF738FD63694FF0FF321A60D4E700BF27
:10800000B3D50D00ACD50D0010B543690446186812
:10801000002801DBFEF726FD63694FF0FF321A608E
:108020006069112200218C3002F048FD2046BDE835
:108030001040FFF70BBF10B5002304460160C0F8E5
:1080400084308830FFF7B0FB204610BD73B50023A5
:108050004FF47A72C0E901320E4A03610260436153
:108060000446AC200191FCF716F8051E05F10C063C
:1080700008D00123C5E90133074B01992B60304635
:10808000FFF7D9FF2046C4E90565FFF7DFFE02B020
:1080900070BD00BFE8D50D00CCD50D0010B54FF078
:1080A000FF310446FFF7D2FF204610BD10B504464D
:1080B0000068002801DBFEF7D5FC204610BD0C301F
:1080C000FFF7F4BF002240681146FEF7DFBD002233
:1080D00040681146FEF7FABD002240681146FEF7DF
:1080E00005BE40680022FEF7F9BD4068002281F01D
:1080F0000101FEF7E3BD002340681A461946FEF76A
:10810000D5BD002340681A461946FEF7C7BD0022B8
:1081100040681146FEF7AABD406800220221FEF722
:10812000ADBD002340681A46FEF798BD024B0422FD
:108130005A60024A1A607047C8E7032034D60D001F
:10814000002340681A46FEF789BD406800220221DC
:10815000FEF794BD002240681146FEF787BD00225D
:1081600040681146FEF792BD002340681A46194642
:10817000FEF794BD002340681A461946FEF796BDE7
:108180004068002281F00101FEF798BD406800229E
:10819000FEF7A4BD002240681146FEF7A7BD0022ED
:1081A00040681146FEF792BD2DE9F043002495B0DA
:1081B00016460D460746FFF7F7FA214618220EA885
:1081C000009402F07BFC4023CDE90C3421466B4641
:1081D0000CAA3046FEF70EFB0446002846D10246A4
:1081E00001216868FEF752FD022180462246686838
:1081F000FEF74CFD009E81462146002E36D0002918
:1082000034D17368022B03D00A2B0BD0F669F4E744
:10821000B8F1000F04D0716938460431FFF707FB4D
:108220004146F3E7B9F1000F01D14946EEE7746921
:10823000102201A802F042FC06238DF8143001AD93
:1082400004F108031834186859682A4603C2083331
:10825000A3421546F7D101A906A807ADFFF7B2FA68
:108260000FCD3C1D0FC42B682370DEE70098FEF78E
:10827000B9FA384615B0BDE8F0830000024B034A56
:108280001A6000225A607047D0E7032068D60D00BC
:10829000232813B502D9002002B010BDA0F10B03B2
:1082A000022B1AD8174C2178BFF35B8F11F0010114
:1082B0000BD120460191FBF7FFFE019928B112482E
:1082C000FEF7D8FD2046FBF7FCFE0F4B1878FEF7B3
:1082D00021FC0028DFD10120DEE7012809D800F0C9
:1082E000A7F80021007CFEF79DFB80F00100C0B2E2
:1082F000D2E709380128EED8FFF77EFB007CFEF7B5
:1083000041FBF2E738E603203CE60320232838B59A
:1083100004460D460AD8FF2908D0FFF7B9FF28B157
:1083200029462046BDE83840FEF774BA38BD38B556
:1083300004460D46FEF776FAFF2810D0062804D82A
:108340004D2323FA00F0C30709D42046FFF7A0FF0E
:1083500028B129462046BDE83840FEF76BBA38BD43
:1083600010B50446FEF75EFA031FDBB2012B08D9F5
:108370002046FFF78DFF20B12046BDE81040FEF7F4
:1083800061BA002010BD0D2810B504469CBF0E3404
:10839000A4B22046FFF77CFF50B103212046FEF730
:1083A00031FA032804D12046BDE81040FEF752BA46
:1083B000002010BD2DE9F04190461F4600240646DE
:1083C0000D46B8F1000F13D147FA04F101F0010195
:1083D0003046FFF7ACFF01212846FFF7A8FF013424
:1083E00000212846FFF7A3FF082CEAD1BDE8F08161
:1083F000C4F1070147FA01F1E8E7FEF733BA0000DC
:1084000038B500232025438014230446038085606B
:1084100005610649284600F03AF80449606028469C
:1084200000F035F8E060204638BD00BF94D60D005E
:1084300030B50F4D2978BFF35B8F11F0010487B081
:1084400013D12846FBF738FE78B101A8FFF7D8FF13
:1084500001AA21460748FFF725FB2846FBF731FE16
:10846000054A0649034800F00BF8024807B030BD42
:10847000DCE70320E0E70320A8E303204D7A0D00AA
:108480000B460146184602F0CFBAFBF708BEFBF7D1
:1084900004BE0000014900F0F9B800BFB0D60D00DD
:1084A0007FB500241023CDE90234036800949E694F
:1084B0008DF8044015466B461268B0479DF80430AD
:1084C00003F00603062B03BF009B2B600120204610
:1084D00004B070BD0098904214BF01200620704780
:1084E00010B5034B0360044600F0CDF8204610BDE4
:1084F000F0D60D0010B50446FFF7F2FF2046082124
:10850000FFF7C3FF204610BD2DE9F0411F46DDE90E
:108510000834DDF8188098450646154607D10799B6
:1085200000F0B4F818B165710020BDE8F08139465B
:10853000304600F0ABF80028F6D00123C4F80080E4
:108540002571A371F0E738B515461C4600F09EF87A
:1085500020B10823E36006232560237138BD73B57D
:1085600005460C4601921E4600F090F850B9032EC5
:1085700008D82368019A5B692946204602B0BDE805
:108580007040184702B070BD10B5034B036004463D
:10859000FFF7A6FF204610BD50D70D0010B50446CA
:1085A000FFF7F2FF20460C21FFF76FFF204610BDBA
:1085B000F7B5089F974205460E4614460AD0A868AC
:1085C00002680897156A31462246AC4603B0BDE8FA
:1085D000F04060471946019300F058F8019B0028CD
:1085E000EDD0062003B0F0BD2DE9F14F0D46194640
:1085F000DDE90A4BDDE90CA681461746984600F0F6
:1086000045F890B1002D3460377109DB61198A4556
:108610000CBF06210121B171002001B0BDE8F08F2F
:108620000235F9D10123B371F6E7544506D1594615
:10863000484600F02BF808B17771EDE7D9F808004B
:108640000368CDE90CA6CDE90A4BDC693A464346FE
:108650002946A44601B0BDE8F04F60472DE9F0413E
:1086600007460C4615461E46FFF76DFF48B9B86829
:1086700003689F692A4633462146BC46BDE8F0415F
:108680006047BDE8F081704700207047814208B51F
:108690000ED0406803782A2B0CD049680B782A2B1F
:1086A00008BF013102F036FAB0FA80F0400908BD87
:1086B0000120FCE70020FAE72DE9F04F2DED028BB9
:1086C0008DB057EC106B55EC114B00F0ADF9AE4B83
:1086D000B0EE408AF0EE608A93F90090B9F1FF3F66
:1086E00037D022462B462046294601F0D9FD834645
:1086F00078BB32463B463046394601F0D1FD8046D4
:10870000002840F093804FF0000A4FF0000B3046F5
:10871000394652465B4601F091FD18B352465B461E
:108720002046294601F08AFD0090002857D0974B3B
:10873000CDF828800122CDE90467CDE90645CDE9D1
:1087400008AB02920393B9F1000F00F089809FED0E
:108750008A8BB0EE480AF0EE680A0DB0BDEC028BD1
:10876000BDE8F08FB0EE480AF0EE680A01F004F8B8
:108770008046002800F082804FF000084FF000098A
:1087800051EC180B42464B4601F058FD0028E0D052
:1087900047EC106B00F0F0FF0028DAD045EC104BEE
:1087A00000F0EAFF0028D4D0774B784A93F90030E4
:1087B000039204210022022BCDE90467CDE906458E
:1087C000CDE9088902910A9204D002A800F0E0FFE6
:1087D00000284AD1FEF7F2FA2223036045E045EC77
:1087E000104B00F0C9FF0028B3D052465B4620462C
:1087F000294601F02DFD0028ABD0634B0099634A58
:1088000093F900300A910121CDE90467CDE90645CD
:10881000CDE90212002B6FD1CDE908AB02A800F020
:10882000B7FF00286ED00A9B2BB320E00022002364
:108830002046294601F002FD00288AD09FED4E8B8C
:10884000524BCDF828B00122B9F1020FCDE90467EF
:10885000CDE906458DED088B029203933FF479AF85
:1088600002A800F095FF002851D00A9B1BB1FEF72B
:10887000A5FA0A9B03609DED088B6AE747EC106B35
:1088800000F07AFF00283FF477AF45EC104B00F082
:1088900073FF00283FF470AF53EC182B18EE100A4A
:1088A000194601F0FDFC384B002840F0968093F902
:1088B00000800A9003230293344B0393CDE90467AD
:1088C000CDE90645B8F1000F26D1DFF8D0904FF082
:1088D000604852465B4630463946CDE9088901F08A
:1088E000B7FC48BB02A800F053FF00289BD1FEF75D
:1088F00065FA2223036096E725490020022BCDE983
:1089000008018BD1FEF75AFA212303608BE7FEF7AB
:1089100055FA21230360A8E79FED197B52465B4679
:10892000304639468DED087B01F092FC002837D1A6
:10893000B8F1020FDBD0D5E7164B002220462946BE
:1089400001F014FA02460B4643EC102BCDE900234C
:1089500000F02AFFDDE9002351EC100B01F06EFC62
:10896000002836D10C4B08494FF06042CDE908236E
:1089700091F90080DCE700BF000000000000F03F3C
:10898000000000000000F07FCCE103208CD70D0038
:108990000000F0FF0000E03FFFFFEFC7FFFFEF47E1
:1089A0001C4B00222046294601F0E0F902460B4606
:1089B00043EC102BCDE9002300F0F6FEDDE90023A7
:1089C00051EC100B01F03AFC18B9134B0022CDE921
:1089D0000823124B93F90080AAE793F90090104BFB
:1089E000CDF828800122CDE90467CDE90645CDE91F
:1089F0000223B9F1000F3FF40FAF52465B465046D9
:108A0000594601F0DDFAB9F1020FCDE908013FF452
:108A100079AF03E70000E03F0000F0FFCCE1032066
:108A20008CD70D00000000002DE9F04F57EC116BC2
:108A30002DED0A8B27F0004A5AEA060289B03DD094
:108A400055EC104B764925F00048884510EE102A69
:108A5000A9462CDC11EE103ABB463AD08A4526DCFA
:108A60006F498A4521D0B9F1000F3DDB0021039108
:108A7000002B55D16A4B9A4500F0A880694B9A4566
:108A800000F0B680BBF1804F00F00185664B9B453E
:108A900046D1B9F1000F43DB45EC104B09B0BDECFA
:108AA0000A8BBDE8F04F00F099BD002BDBD008F138
:108AB000404808F5801858EA02030DD19FED547B19
:108AC0008DED007B9DED000B09B0BDEC0A8BBDE880
:108AD000F08F0CB9C245C3DD544809B0BDEC0A8B18
:108AE000BDE8F04F00F058BE51498A4500F3878039
:108AF000A1F154718A450FDD4FEA2A51A1F2FF31ED
:108B0000142940F3CE84C1F1340123FA01F000FAB4
:108B100001F1994200F0208500210391002BADD096
:108B200045EC104B069200F01DFE069A8DED000BF1
:108B30005ABBB8F1000F04D03A4B29F040429A4298
:108B400023D1BBF1000F07DADDE90023354900200E
:108B500001F036FACDE90001B9F1000FB2DA039B5A
:108B600008F1404808F5801858EA030340F0BE8435
:108B7000DDE900231046194600F040FF02460B468F
:108B800001F01EFACDE900019CE7039A4FEAD97380
:108B9000013B0693134335D0264B9A454EDD03F136
:108BA00004739A45244B40F3ED83984540F36B835F
:108BB000BBF1000F40F36B8317A3D3E900231046EA
:108BC000194601F0D3F8CDE900017BE708F14043F5
:108BD00003F5801313433FF471AF174B984540F3EF
:108BE0008883BBF1000FC0F25283CDE9006769E7CB
:108BF000BBF1000FC0F24184CDE9004562E70221DC
:108C0000039135E722462B46B4E700BFAFF300805F
:108C1000000000000000F03F9C7500883CE4377EB7
:108C20000000F07F0000F03F0000E03F90D70D0013
:108C3000FFFF3F430000E041FFFFEF3FE44B09EA45
:108C40000303002B40F01684DDE90001E14B002214
:108C500001F08CF8CDE90001DDF804806FF03400FC
:108C60004FEA2853DC49C8F31302A3F2FF3342F062
:108C70007F5818188A42079048F4401840F3E98357
:108C8000D64B9A4240F33E849FEDBB7BB0EE47BA91
:108C9000F0EE67BAB0EE47CAF0EE67CA9FEDB87B58
:108CA000013054EC173B0790A8F580184FF00009ED
:108CB000DDE900AB44EC183B1A46504623464146DA
:108CC00000F09CFE53EC182B04460D4650464146DE
:108CD00000F096FE02460B460020C14901F070F9F3
:108CE00045EC1A4B41EC190B51EC1A0B53EC192BB8
:108CF00001F03CF8C3464FEA680848F0005808F510
:108D0000002303EB09050A4600230146CDE90012C2
:108D10000093DDE900890024CDE904122B462246A8
:108D20004046494601F022F802460B4651EC1A0B28
:108D300000F064FE41EC170B53EC182B204629463B
:108D400055EC174B00F05AFE02460B46504659466A
:108D500000F054FE42464B4601F008F802460B462E
:108D60002046294600F04AFE53EC192B00F0FEFF86
:108D7000DDE904AB04460D4652465B465046594673
:108D800000F0F4FF80A3D3E9002345EC1A4B04461E
:108D90000D4600F0EBFF7EA3D3E9002300F030FE88
:108DA00022462B4600F0E2FF7BA3D3E9002300F02C
:108DB00027FE22462B4600F0D9FF79A3D3E90023F2
:108DC00000F01EFE22462B4600F0D0FF76A3D3E92A
:108DD000002300F015FE22462B4600F0C7FF74A3C7
:108DE000D3E9002300F00CFE22462B4604460D4634
:108DF0001046194600F0BAFF02460B4620462946A7
:108E000000F0B4FF424604460D464B4650465946D4
:108E1000CDE904AB00F0F4FD53EC1A2B00F0A6FFF3
:108E200022462B4600F0ECFD424604460D464B46DA
:108E30004046494600F09AFF45EC194B694B002229
:108E400082468B4600F0DCFD53EC192B00F0D8FD78
:108E5000009C0D4622462B464046494600F086FFC0
:108E6000604B8046894600222046294600F0C6FD18
:108E700052465B4600F0C2FD02460B4651EC190B10
:108E800000F0BCFDDDE9042300F070FF49EC188B15
:108E90002246804689462B4651EC1A0B00F066FFAD
:108EA00002460B464046494600F0AAFD82468B46E4
:108EB00052465B4651EC180B00F0A2FD009C3EA30D
:108EC000D3E9002320460D4600F050FF53EC182B49
:108ED000804689462046294600F090FD02460B4612
:108EE0005046594600F08AFD35A3D3E9002300F02F
:108EF0003DFF49EC198B34A3D3E900238046894612
:108F00002046294600F032FF02460B4640464946BD
:108F100000F076FD53EC1C2B00F072FD82460798A2
:108F20008B4600F0B9FE5246804689465B4651ECBE
:108F3000190B00F065FD53EC1B2B00F061FD424660
:108F40004B4600F05DFD009C42464B4620460D46D8
:108F500000F054FD53EC1B2B00F050FD53EC192B8B
:108F600000F04CFD02460B465046594600F046FDC7
:108F700082468B4638E000BF000000000000000081
:108F8000000000000000F03FEF4E454A287ECA3F37
:108F900065DBC9934A86CD3F01411DA96074D13F6D
:108FA0004D268F515555D53FFFAB6FDBB66DDB3F7F
:108FB000033333333333E33F000000E009C7EE3FB0
:108FC000FD033ADC09C7EE3FF5015B14E02F3EBE1E
:108FD0000000F07F000040438E98030079B60B003C
:108FE0000000F03F00000840039B069A013B13433A
:108FF00040F078819FEDC47BB0EE479AF0EE679A1F
:109000000023CDE900670093DDE900893046424640
:1090100039464B4600F0F2FC22462B4600F0A6FEF5
:1090200032463B4606460F465046594600F09EFEE5
:1090300002460B463046394600F0E2FC4246824684
:109040008B464B462046294600F090FE06460F46CA
:109050003B4650465946324600F0D2FCC44B99423A
:1090600004460D46884640F3178101F13F4303F55E
:10907000E003034340F02A82A5A3D3E9002350462E
:10908000594600F0BDFC324641EC180B3B462046E9
:10909000294600F0B3FC02460B4651EC180B01F0D8
:1090A000F5F8002840F01282C8F30A534FF48012FA
:1090B000A3F2FE3342FA03F34344AE49C3F30A5228
:1090C000A2F2FF3241FA02FCC3F3130523EA0C01BA
:1090D000C2F1140445F48015B8F1000F0B4645FAAF
:1090E00004F103914FF00000B8BF49420246B8BFF7
:1090F00003913046394600F081FC06460F463B4658
:1091000050465946324600F07BFC039B1B050093FA
:109110000D46002480A3D3E900232046294600F011
:1091200025FE3246804689463B462046294600F0C9
:1091300065FC02460B465046594600F05FFC78A39A
:10914000D3E9002300F012FE77A3D3E900230646FB
:109150000F462046294600F009FE02460B463046DF
:10916000394600F04DFC06460F4632463B46404627
:10917000494600F045FC42464B4604460D4600F089
:109180003DFC02460B463046394600F037FC22468D
:1091900082468B462B462046294600F0E7FD64A315
:1091A000D3E9002306460F4600F0E0FD62A3D3E9B1
:1091B000002300F023FC32463B4600F0D7FD60A3BD
:1091C000D3E9002300F01CFC32463B4600F0CEFD04
:1091D0005DA3D3E9002300F011FC32463B4600F0CA
:1091E000C5FD5BA3D3E9002300F00AFC32463B46F1
:1091F00000F0BCFD02460B462046294600F0FEFB6F
:1092000006460F4632463B462046294600F0AEFD54
:109210000022804689464FF080433046394600F0B0
:10922000EDFB02460B464046494600F0C9FE524659
:1092300006460F465B462046294600F097FD5246FB
:109240005B4600F0DDFB02460B463046394600F037
:10925000D5FB22462B4600F0D1FB02460B460020F0
:10926000454900F0CBFB0B4600991944B1F5801F2E
:109270000246C0F26981104653EC192B00F076FDCE
:10928000CDE900011EE4BBF1000FFFF695AC9FEDA8
:10929000327B8DED007B15E4DFF8E4C021F0004364
:1092A000634540F30B81354B0B4403430AD13246EF
:1092B0003B4600F0A3FB52465B4600F0DDFF002872
:1092C0003FF4F2AE26A3D3E9002351EC190B00F0D2
:1092D0004DFD23A3D3E9002300F048FDCDE90001B3
:1092E000FFF7F0BB9FED207BB0EE479AF0EE679A58
:1092F00086E6BBF1000FCADA07F10043009601933E
:10930000FFF7E0BBAFF30080000000000000F0BFFB
:10931000FE822B654715973C00000000432EE63F78
:10932000EF39FAFE422EE63F396CA80C615C20BE94
:10933000D0A4BE726937663EF16BD2C541BDBB3E5B
:109340002CDE25AF6A56113F93BDBE166CC1663F39
:109350003E5555555555C53F000000000000000022
:1093600059F3F8C21F6EA501000000000000F03F95
:10937000FFFF8F40FFFF0F000000F03F00346F3F02
:10938000FFCB90409845FFF67EAF914B98453FF755
:109390000FAC8F4B0022DDE9000100F02FFB78A31A
:1093A000D3E9002304460D4600F0E0FC76A3D3E9A0
:1093B000002382468B462046294600F0D7FC854B89
:1093C0008046894600222046294600F0CFFC02460E
:1093D0000B466FA1D1E9000100F010FB22462B469D
:1093E00000F0C4FC02460B4600207B4900F006FB5F
:1093F00022462B4604460D461046194600F0B6FCA0
:1094000002460B462046294600F0B0FC62A3D3E991
:10941000002300F0ABFC02460B464046494600F0F4
:10942000EDFA804689465046594642464B4600F082
:10943000E7FA002452465B4620460D4600F0DEFA6D
:1094400002460B464046494600F0D8FA82468B4613
:10945000CAE59FED537BB0EE47BAF0EE67BAB0EEC7
:1094600047CAF0EE67CA9FED507B4FF0000954ECFD
:10947000173B1DE40020FFF7F3BB554922462B465E
:10948000002000F09DFDCDE90001FFF71BBB224647
:109490002B462046294600F069FCCDE90001FFF784
:1094A00011BB002B42D1C1F114014AFA01F000FABC
:1094B00001F151455AD00393FFF7E0BA464A93426F
:1094C0005BDCDDE900120091039122E638A3D3E9C9
:1094D000002351EC190B00F049FC35A3D3E900231C
:1094E00000F044FCCDE90001FFF7ECBA039B012B2F
:1094F0007FF4E8AADDE9002101F10043CDE9002372
:10950000FFF7E0BA9FED2C7BB0EE47BAF0EE67BAFA
:109510009FED2B7BB0EE47CAF0EE67CA9FED2A7B2A
:109520004FF4802954EC173BFFF7C2BB45EC104BBE
:10953000039200F017F9039A8DED000B002A7FF4D7
:1095400061AB0392FFF7F5BA039843EC102B00F0E0
:10955000BFF951EC100B8FE600F00100C0F10201E1
:109560000391002B3FF48AAAFFF7DABA00F001005A
:10957000C0F102030393FFF781BA1B1596E500BF04
:10958000000000604715F73F44DF5DF80BAE543E26
:10959000555555555555D53FFE822B654715F73F17
:1095A0000000000000000000000000000000F03F8C
:1095B0009C7500883CE4377E0000004003B8E23F21
:1095C00006D0CF43EBFD4C3E000000000000F83F0A
:1095D0000000F03F0000D03F0000E03F2DE9F041E7
:1095E0005F4A57EC106BBA4300F09880002F10EEE2
:1095F000104A3B464EDD39155BD0C3F31303CA074F
:1096000043F48013A1F2FF3E03D45B0003EBD47359
:109610006400E20F4FF0000C02EB43034FEA6E0EC2
:109620006400664616254FF40012B118994202DC18
:109630005B1A8E1894445B00013D03EBD4734FEA30
:1096400052024FEA4404F0D12F4620204FF000424E
:1096500009E03ED0E10F01384FEA520201EB43032B
:109660004FEA44043ED0B34202EB0501F1DD00298C
:1096700001EB020509DBB0469B1BA14288BF03F149
:10968000FF33641A17444646E4E7002DF3DB06F186
:109690000108F1E727F00042324336D0002F4DD1C8
:1096A0003946E20A153964051346002AF9D0D70273
:1096B00051D400205B00DE02054600F10100F9D51F
:1096C0001A4623468440C0F12000C3401343491B7F
:1096D00093E7A142BED8002901EB0205D5DB9846ED
:1096E0000023CEE7234312D178084FEA6C0101F141
:1096F0007F511CF0010F01F5001118BF40F0004030
:1097000001EB0E53024643EC102BBDE8F0817B1CAD
:1097100016BF781C0CF1010C4008E6E710EE102A89
:1097200010EE100A3B46394600F020FB32463B461D
:1097300000F066F941EC100BBDE8F08110EE102A44
:109740003046394600F05AF902460B4600F038FC24
:1097500041EC100BD9E7234620204FF0FF35B4E74A
:109760000000F07F51EC100B10EE102A21F00043A6
:1097700043EC102B704700BF82B08DED000B0198B9
:1097800040F0004000F58010C00F02B0704700BFED
:1097900000207047000000009FED010B704700BFE4
:1097A000000000000000F87FF0B553EC102BC3F36D
:1097B0000A56A6F2FF30132810EE105A83B019464D
:1097C0004FEAD37431DC00284CDB3E4E064103EAFD
:1097D000060717432ED003EA56031D434FEA5606E9
:1097E0000CD04FF48023132821EA060643FA00F137
:1097F00041EA06010CBF4FF000450025324800EB5E
:10980000C4042A46D4E900450B462046294600F008
:10981000F7F8CDE90001DDE9000122462B4600F012
:10982000EDF841EC100B03B0F0BD332806DDB0F5C8
:10983000806F40D043EC102B03B0F0BDA6F213466E
:109840004FF0FF30F0400242F4D015EA50024FEAE8
:109850005003D3D04FF0804225EA030542FA06F6C2
:109860003543CBE723F000401043E3D0C3F31300AC
:10987000104345420543144800EBC400D0E900679B
:10988000590C2D0B490405F4002545EA0103304627
:10989000394600F0B5F8CDE900013B46DDE90001AD
:1098A000324600F0ABF821F0004343EAC47141ECCA
:1098B000100B03B0F0BD10EE100A00F0A1F841EC5F
:1098C000100BB9E7FFFF0F0098D70D000000000054
:1098D00038B553EC102BC3F30A511C46054681BB27
:1098E00010EE101A23F00044214329D0194600221B
:1098F0003D4B3E4C10EE100A00F038FAA5420246ED
:109900000B4616DB0C46C1F30A513639294440F2A6
:10991000FE70814221DC002947DC11F1350F34DA79
:109920004CF250318D4218DC002B27A1D1E9000107
:1099300044DB25A3D3E9002300F018FA41EC100B17
:1099400038BD40F2FF708142E0D110EE100A194696
:1099500000F056F841EC100B38BD002B1CA1D1E9EA
:10996000000107DB1AA3D3E9002300F0FFF941EC63
:10997000100B38BD18A1D1E9000115A3D3E90023CC
:1099800000F0F4F941EC100BF3E724F0FF4424F469
:10999000E004363144EA0153104619460022144BC4
:1099A00000F0E4F941EC100B38BD24F0FF4424F43E
:1099B000E00444EA015343EC102B38BD08A1D1E97F
:1099C0000001B6E7AFF3008059F3F8C21F6EA5019E
:1099D0009C7500883CE4377E9C7500883CE437FE2B
:1099E00059F3F8C21F6EA58100005043B03CFFFF41
:1099F0000000903C81F0004102E000BF83F0004392
:109A000030B54FEA41044FEA430594EA050F08BF19
:109A100090EA020F1FBF54EA000C55EA020C7FEADD
:109A2000645C7FEA655C00F0E2804FEA5454D4EB5A
:109A30005555B8BF6D420CDD2C4480EA020281EA24
:109A4000030382EA000083EA010180EA020281EA5C
:109A50000303362D88BF30BD11F0004F4FEA0131AE
:109A60004FF4801C4CEA113102D0404261EB4101BD
:109A700013F0004F4FEA03334CEA133302D0524243
:109A800063EB430394EA050F00F0A780A4F10104FF
:109A9000D5F1200E0DDB02FA0EFC22FA05F2801839
:109AA00041F1000103FA0EF2801843FA05F359411F
:109AB0000EE0A5F120050EF1200E012A03FA0EFC9E
:109AC00028BF4CF0020C43FA05F3C01851EBE371C8
:109AD00001F0004507D54FF0000EDCF1000C7EEBE5
